{"abi":[{"type":"constructor","inputs":[{"name":"name_","type":"string","internalType":"string"},{"name":"symbol_","type":"string","internalType":"string"}],"stateMutability":"nonpayable"},{"type":"function","name":"approve","inputs":[{"name":"to","type":"address","internalType":"address"},{"name":"tokenId","type":"uint256","internalType":"uint256"}],"outputs":[],"stateMutability":"nonpayable"},{"type":"function","name":"balanceOf","inputs":[{"name":"owner","type":"address","internalType":"address"}],"outputs":[{"name":"","type":"uint256","internalType":"uint256"}],"stateMutability":"view"},{"type":"function","name":"exists","inputs":[{"name":"agentId","type":"uint256","internalType":"uint256"}],"outputs":[{"name":"","type":"bool","internalType":"bool"}],"stateMutability":"view"},{"type":"function","name":"getApproved","inputs":[{"name":"tokenId","type":"uint256","internalType":"uint256"}],"outputs":[{"name":"","type":"address","internalType":"address"}],"stateMutability":"view"},{"type":"function","name":"getMetadata","inputs":[{"name":"agentId","type":"uint256","internalType":"uint256"},{"name":"key","type":"string","internalType":"string"}],"outputs":[{"name":"","type":"string","internalType":"string"}],"stateMutability":"view"},{"type":"function","name":"identityRegistryAddress","inputs":[],"outputs":[{"name":"","type":"address","internalType":"address"}],"stateMutability":"view"},{"type":"function","name":"isApprovedForAll","inputs":[{"name":"owner","type":"address","internalType":"address"},{"name":"operator","type":"address","internalType":"address"}],"outputs":[{"name":"","type":"bool","internalType":"bool"}],"stateMutability":"view"},{"type":"function","name":"name","inputs":[],"outputs":[{"name":"","type":"string","internalType":"string"}],"stateMutability":"view"},{"type":"function","name":"owner","inputs":[],"outputs":[{"name":"","type":"address","internalType":"address"}],"stateMutability":"view"},{"type":"function","name":"ownerOf","inputs":[{"name":"tokenId","type":"uint256","internalType":"uint256"}],"outputs":[{"name":"","type":"address","internalType":"address"}],"stateMutability":"view"},{"type":"function","name":"register","inputs":[{"name":"tokenURI_","type":"string","internalType":"string"},{"name":"metadata","type":"tuple[]","internalType":"struct IIdentityRegistry.MetadataEntry[]","components":[{"name":"key","type":"string","internalType":"string"},{"name":"value","type":"string","internalType":"string"}]}],"outputs":[{"name":"agentId","type":"uint256","internalType":"uint256"}],"stateMutability":"nonpayable"},{"type":"function","name":"registryChainId","inputs":[],"outputs":[{"name":"","type":"uint64","internalType":"uint64"}],"stateMutability":"view"},{"type":"function","name":"renounceOwnership","inputs":[],"outputs":[],"stateMutability":"nonpayable"},{"type":"function","name":"safeTransferFrom","inputs":[{"name":"from","type":"address","internalType":"address"},{"name":"to","type":"address","internalType":"address"},{"name":"tokenId","type":"uint256","internalType":"uint256"}],"outputs":[],"stateMutability":"nonpayable"},{"type":"function","name":"safeTransferFrom","inputs":[{"name":"from","type":"address","internalType":"address"},{"name":"to","type":"address","internalType":"address"},{"name":"tokenId","type":"uint256","internalType":"uint256"},{"name":"data","type":"bytes","internalType":"bytes"}],"outputs":[],"stateMutability":"nonpayable"},{"type":"function","name":"setApprovalForAll","inputs":[{"name":"operator","type":"address","internalType":"address"},{"name":"approved","type":"bool","internalType":"bool"}],"outputs":[],"stateMutability":"nonpayable"},{"type":"function","name":"setMetadata","inputs":[{"name":"agentId","type":"uint256","internalType":"uint256"},{"name":"key","type":"string","internalType":"string"},{"name":"value","type":"string","internalType":"string"}],"outputs":[],"stateMutability":"nonpayable"},{"type":"function","name":"setTokenURI","inputs":[{"name":"agentId","type":"uint256","internalType":"uint256"},{"name":"uri","type":"string","internalType":"string"}],"outputs":[],"stateMutability":"nonpayable"},{"type":"function","name":"supportsInterface","inputs":[{"name":"interfaceId","type":"bytes4","internalType":"bytes4"}],"outputs":[{"name":"","type":"bool","internalType":"bool"}],"stateMutability":"view"},{"type":"function","name":"symbol","inputs":[],"outputs":[{"name":"","type":"string","internalType":"string"}],"stateMutability":"view"},{"type":"function","name":"tokenURI","inputs":[{"name":"tokenId","type":"uint256","internalType":"uint256"}],"outputs":[{"name":"","type":"string","internalType":"string"}],"stateMutability":"view"},{"type":"function","name":"transferFrom","inputs":[{"name":"from","type":"address","internalType":"address"},{"name":"to","type":"address","internalType":"address"},{"name":"tokenId","type":"uint256","internalType":"uint256"}],"outputs":[],"stateMutability":"nonpayable"},{"type":"function","name":"transferOwnership","inputs":[{"name":"newOwner","type":"address","internalType":"address"}],"outputs":[],"stateMutability":"nonpayable"},{"type":"event","name":"Approval","inputs":[{"name":"owner","type":"address","indexed":true,"internalType":"address"},{"name":"approved","type":"address","indexed":true,"internalType":"address"},{"name":"tokenId","type":"uint256","indexed":true,"internalType":"uint256"}],"anonymous":false},{"type":"event","name":"ApprovalForAll","inputs":[{"name":"owner","type":"address","indexed":true,"internalType":"address"},{"name":"operator","type":"address","indexed":true,"internalType":"address"},{"name":"approved","type":"bool","indexed":false,"internalType":"bool"}],"anonymous":false},{"type":"event","name":"MetadataSet","inputs":[{"name":"agentId","type":"uint256","indexed":true,"internalType":"uint256"},{"name":"key","type":"string","indexed":true,"internalType":"string"},{"name":"value","type":"string","indexed":false,"internalType":"string"}],"anonymous":false},{"type":"event","name":"OwnershipTransferred","inputs":[{"name":"previousOwner","type":"address","indexed":true,"internalType":"address"},{"name":"newOwner","type":"address","indexed":true,"internalType":"address"}],"anonymous":false},{"type":"event","name":"Registered","inputs":[{"name":"agentId","type":"uint256","indexed":true,"internalType":"uint256"},{"name":"tokenURI","type":"string","indexed":false,"internalType":"string"},{"name":"owner","type":"address","indexed":true,"internalType":"address"}],"anonymous":false},{"type":"event","name":"Transfer","inputs":[{"name":"from","type":"address","indexed":true,"internalType":"address"},{"name":"to","type":"address","indexed":true,"internalType":"address"},{"name":"tokenId","type":"uint256","indexed":true,"internalType":"uint256"}],"anonymous":false}],"bytecode":{"object":"0x608060405234620003305762001e84803803806200001d8162000334565b928339810190604081830312620003305780516001600160401b03908181116200033057836200004f9184016200035a565b916020938482015183811162000330576200006b92016200035a565b928251908282116200024e575f54916001948584811c9416801562000325575b838510146200022f578190601f94858111620002d2575b5083908583116001146200026e575f9262000262575b50505f19600383901b1c191690851b175f555b84519283116200024e5783548481811c9116801562000243575b828210146200022f57828111620001e7575b50809183116001146200018357508192935f9262000177575b50505f19600383901b1c191690821b1790555b60078054336001600160a01b03198216811790925560405191906001600160a01b03167f8be0079c531659141344cd1fd0a4f28419497f9722a3daafe3b4186f6b6457e05f80a3611ab99081620003cb8239f35b015190505f8062000110565b90601f19831694845f52825f20925f905b878210620001cf57505083859610620001b6575b505050811b01905562000123565b01515f1960f88460031b161c191690555f8080620001a8565b80878596829496860151815501950193019062000194565b845f52815f208380860160051c82019284871062000225575b0160051c019085905b82811062000219575050620000f7565b5f815501859062000209565b9250819262000200565b634e487b7160e01b5f52602260045260245ffd5b90607f1690620000e5565b634e487b7160e01b5f52604160045260245ffd5b015190505f80620000b8565b90879350601f198316915f8052855f20925f5b87828210620002bb5750508411620002a2575b505050811b015f55620000cb565b01515f1960f88460031b161c191690555f808062000294565b8385015186558b9790950194938401930162000281565b9091505f8052835f208580850160051c8201928686106200031b575b918991869594930160051c01915b8281106200030c575050620000a2565b5f8155859450899101620002fc565b92508192620002ee565b93607f16936200008b565b5f80fd5b6040519190601f01601f191682016001600160401b038111838210176200024e57604052565b919080601f84011215620003305782516001600160401b0381116200024e5760209062000390601f8201601f1916830162000334565b9281845282828701011162000330575f5b818110620003b65750825f9394955001015290565b8581018301518482018401528201620003a156fe6080806040526004361015610012575f80fd5b5f3560e01c90816301ffc9a714610f445750806306fdde0314610e9d578063081812fc14610e7f578063095ea7b314610d0b578063162094c414610ce657806318e3ab5714610cc357806323b872dd14610c9f57806342842e0e14610c6d5780634f558e7914610c3357806359f9f50f14610a8c5780636352211e14610a5c57806370a08231146109c7578063715018a61461096c57806384413ec41461058b5780638da5cb5b1461056357806395d89b4114610485578063a22cb465146103b7578063a759ee6f1461039d578063b88d4fde14610316578063c87b56dd1461029e578063cb4799f214610232578063e985e9c5146101e05763f2fde38b14610119575f80fd5b346101dc5760203660031901126101dc57610132611007565b61013a6117d7565b6001600160a01b0390811690811561018857600754826001600160601b0360a01b821617600755167f8be0079c531659141344cd1fd0a4f28419497f9722a3daafe3b4186f6b6457e05f80a3005b60405162461bcd60e51b815260206004820152602660248201527f4f776e61626c653a206e6577206f776e657220697320746865207a65726f206160448201526564647265737360d01b6064820152608490fd5b5f80fd5b346101dc5760403660031901126101dc576101f9611007565b61020161101d565b9060018060a01b038091165f52600560205260405f2091165f52602052602060ff60405f2054166040519015158152f35b346101dc5761024d61024336611060565b929192369161111f565b60208151910120905f52600960205260405f20905f5260205261029a61027f61028660405f206040519283809261118d565b03826110e3565b604051918291602083526020830190610fc9565b0390f35b346101dc5760203660031901126101dc576004355f818152600260205260409020546102d4906001600160a01b03161515611332565b5f52600660205261029a61027f6102f460405f206040519283809261118d565b5f604051610301816110c8565b52604051918291602083526020830190610fc9565b346101dc5760803660031901126101dc5761032f611007565b61033761101d565b90606435906044356001600160401b0383116101dc57366023840112156101dc5761039b9361037361039694369060248160040135910161111f565b926103866103818433611604565b61125a565b6103918383836116c8565b6119b3565b611882565b005b346101dc575f3660031901126101dc576020604051308152f35b346101dc5760403660031901126101dc576103d0611007565b602435908115158092036101dc576001600160a01b03169033821461044057335f52600560205260405f20825f5260205260405f2060ff1981541660ff83161790556040519081527f17307eab39ab6107e8899845ad3d59bd9653f200f220920489ca2b5937696c3160203392a3005b60405162461bcd60e51b815260206004820152601960248201527f4552433732313a20617070726f766520746f2063616c6c6572000000000000006044820152606490fd5b346101dc575f3660031901126101dc576040515f600182600154926104a984611155565b92838352602094856001821691825f146105435750506001146104e8575b506104d4925003836110e3565b61029a604051928284938452830190610fc9565b84915060015f527fb10e2d527612073b26eecdfd717e6a320cf44b4afac2b0732d9fcbe2b7fa0cf6905f915b85831061052b5750506104d49350820101856104c7565b80548389018501528794508693909201918101610514565b60ff1916858201526104d495151560051b85010192508791506104c79050565b346101dc575f3660031901126101dc576007546040516001600160a01b039091168152602090f35b346101dc5760403660031901126101dc576004356001600160401b0381116101dc576105bb903690600401611033565b602435906001600160401b0382116101dc57366023830112156101dc576001600160401b038260040135116101dc57366024836004013560051b840101116101dc57600854915f198314610958576001830160085560405161061c816110c8565b5f8152331561091457600184015f908152600260205260409020546106e39161039691610655906001600160a01b031615155b15611a37565b600186015f9081526002602052604090205461067b906001600160a01b0316151561064f565b335f52600360205260405f2060018154019055600186015f52600260205260405f20336001600160601b0360a01b82541617905560018601335f7fddf252ad1be2c89b69c2b068fc378daa952ba7f163c4a11628f55a4df523b3ef8180a460018601336118a6565b6106fa6106f136848761111f565b600185016114bb565b5f5b8160040135811061074f5750506020927fca52e62c367d81bb2e328eb795f7c7ba24afb478408a26c0e201d155c449bc4a60405180610741339560018801958361130b565b0390a3600160405191018152f35b61077461076d610767838560040135602487016113a3565b806113d9565b369161111f565b6020815191012061079a610790838560040135602487016113a3565b60208101906113d9565b9091600187015f52600960205260405f20905f5260205260405f20916001600160401b038211610900576107d8826107d28554611155565b856112bc565b5f90601f831160011461089657918061080b9260019695945f9261088b575b50508160011b915f199060031b1c19161790565b90555b610823610767828560040135602487016113a3565b907fb16aadf9d3fd71c608c852445efc360dc29039082bf03d171074482996c4a12e61088261085d61079086896004013560248b016113a3565b94909381604051928392833781015f815203902093604051918291888c01958361130b565b0390a3016106fc565b013590508a806107f7565b835f5260205f20915f5b601f19851681106108e857509183916001969594938794601f198116106108cf575b505050811b01905561080e565b01355f19600384901b60f8161c191690558980806108c2565b909260206001819286860135815501940191016108a0565b634e487b7160e01b5f52604160045260245ffd5b606460405162461bcd60e51b815260206004820152602060248201527f4552433732313a206d696e7420746f20746865207a65726f20616464726573736044820152fd5b634e487b7160e01b5f52601160045260245ffd5b346101dc575f3660031901126101dc576109846117d7565b600780546001600160a01b031981169091555f906001600160a01b03167f8be0079c531659141344cd1fd0a4f28419497f9722a3daafe3b4186f6b6457e08280a3005b346101dc5760203660031901126101dc576001600160a01b036109e8611007565b168015610a05575f526003602052602060405f2054604051908152f35b60405162461bcd60e51b815260206004820152602960248201527f4552433732313a2061646472657373207a65726f206973206e6f7420612076616044820152683634b21037bbb732b960b91b6064820152608490fd5b346101dc5760203660031901126101dc576020610a7a60043561137e565b6040516001600160a01b039091168152f35b346101dc5760603660031901126101dc576001600160401b036004356024358281116101dc57610ac0903690600401611033565b6044929192358481116101dc57610adb903690600401611033565b919093610ae78461140b565b610af236838361111f565b958651602080980120855f526009885260405f20905f52875260405f2090841161090057610b2a84610b248354611155565b836112bc565b5f96601f8511600114610baf5750610b7b84807fb16aadf9d3fd71c608c852445efc360dc29039082bf03d171074482996c4a12e9798995f91610ba4575b508160011b915f199060031b1c19161790565b90555b81604051928392833781015f815203902093610b9f6040519283928361130b565b0390a3005b90508901358a610b68565b601f19851697825f52815f20915f905b8a8210610c1b575050857fb16aadf9d3fd71c608c852445efc360dc29039082bf03d171074482996c4a12e97989910610c02575b5050600184811b019055610b7e565b8801355f19600387901b60f8161c191690558780610bf3565b80600184958294958d01358155019401920190610bbf565b346101dc5760203660031901126101dc576004355f908152600260209081526040909120546001600160a01b031615156040519015158152f35b346101dc5761039b610396610c8136611093565b9060405192610c8f846110c8565b5f84526103866103818433611604565b346101dc5761039b610cb036611093565b91610cbe6103818433611604565b6116c8565b346101dc575f3660031901126101dc5760206040516001600160401b0346168152f35b346101dc5761039b610d05610cfa36611060565b61076d83949361140b565b906114bb565b346101dc5760403660031901126101dc57610d24611007565b602435906001600160a01b038080610d3b8561137e565b16921691808314610e3057803314908115610e0f575b5015610da4575f83815260046020526040902080546001600160a01b03191683179055610d7d8361137e565b167f8c5be1e5ebec7d5bd14f71427d1e84f3dd0314c0f7b2291e5b200ac8c7c3b9255f80a4005b60405162461bcd60e51b815260206004820152603d60248201527f4552433732313a20617070726f76652063616c6c6572206973206e6f7420746f60448201527f6b656e206f776e6572206f7220617070726f76656420666f7220616c6c0000006064820152608490fd5b90505f52600560205260405f20335f5260205260ff60405f20541684610d51565b60405162461bcd60e51b815260206004820152602160248201527f4552433732313a20617070726f76616c20746f2063757272656e74206f776e656044820152603960f91b6064820152608490fd5b346101dc5760203660031901126101dc576020610a7a60043561121e565b346101dc575f3660031901126101dc576040515f80549082610ebe83611155565b91828252602093600190856001821691825f14610543575050600114610eeb57506104d4925003836110e3565b5f808052859250907f290decd9548b62a8d60345a988386fc84ba6bc95484008f6362f93160ef3e5635b858310610f2c5750506104d49350820101856104c7565b80548389018501528794508693909201918101610f15565b346101dc5760203660031901126101dc576004359063ffffffff60e01b82168092036101dc57602091633c0c036f60e21b8114908115610f86575b5015158152f35b6380ac58cd60e01b811491508115610fb8575b8115610fa7575b5083610f7f565b6301ffc9a760e01b14905083610fa0565b635b5e139f60e01b81149150610f99565b91908251928382525f5b848110610ff3575050825f602080949584010152601f8019910116010190565b602081830181015184830182015201610fd3565b600435906001600160a01b03821682036101dc57565b602435906001600160a01b03821682036101dc57565b9181601f840112156101dc578235916001600160401b0383116101dc57602083818601950101116101dc57565b9060406003198301126101dc5760043591602435906001600160401b0382116101dc5761108f91600401611033565b9091565b60609060031901126101dc576001600160a01b039060043582811681036101dc579160243590811681036101dc579060443590565b602081019081106001600160401b0382111761090057604052565b90601f801991011681019081106001600160401b0382111761090057604052565b6001600160401b03811161090057601f01601f191660200190565b92919261112b82611104565b9161113960405193846110e3565b8294818452818301116101dc578281602093845f960137010152565b90600182811c92168015611183575b602083101461116f57565b634e487b7160e01b5f52602260045260245ffd5b91607f1691611164565b80545f939261119b82611155565b918282526020936001916001811690815f146111ff57506001146111c1575b5050505050565b90939495505f92919252835f2092845f945b8386106111eb57505050500101905f808080806111ba565b8054858701830152940193859082016111d3565b60ff19168685015250505090151560051b010191505f808080806111ba565b5f81815260026020526040902054611240906001600160a01b03161515611332565b5f908152600460205260409020546001600160a01b031690565b1561126157565b60405162461bcd60e51b815260206004820152602d60248201527f4552433732313a2063616c6c6572206973206e6f7420746f6b656e206f776e6560448201526c1c881bdc88185c1c1c9bdd9959609a1b6064820152608490fd5b601f82116112c957505050565b5f5260205f20906020601f840160051c83019310611301575b601f0160051c01905b8181106112f6575050565b5f81556001016112eb565b90915081906112e2565b90918060409360208452816020850152848401375f828201840152601f01601f1916010190565b1561133957565b60405162461bcd60e51b815260206004820152601860248201527f4552433732313a20696e76616c696420746f6b656e20494400000000000000006044820152606490fd5b5f908152600260205260409020546001600160a01b03166113a0811515611332565b90565b91908110156113c55760051b81013590603e19813603018212156101dc570190565b634e487b7160e01b5f52603260045260245ffd5b903590601e19813603018212156101dc57018035906001600160401b0382116101dc576020019181360383136101dc57565b6114148161137e565b6001600160a01b0390811633811492909183156114a3575b50508115611482575b501561143d57565b60405162461bcd60e51b815260206004820152601a60248201527f6e6f7420636f6e74726f6c6c6572206f72206f70657261746f720000000000006044820152606490fd5b90505f52600560205260405f20335f5260205260ff60405f2054165f611435565b909192506114b1339261121e565b1614905f8061142c565b5f818152600260205260409020549192916001600160a01b0316156115a8575f526020600660205260405f20908351906001600160401b03821161090057611507826107d28554611155565b602090601f8311600114611547575081906115389394955f9261153c5750508160011b915f199060031b1c19161790565b9055565b015190505f806107f7565b90601f19831695845f5260205f20925f905b88821061159057505083600195969710611578575b505050811b019055565b01515f1960f88460031b161c191690555f808061156e565b80600185968294968601518155019501930190611559565b60405162461bcd60e51b815260206004820152602e60248201527f45524337323155524953746f726167653a2055524920736574206f66206e6f6e60448201526d32bc34b9ba32b73a103a37b5b2b760911b6064820152608490fd5b906001600160a01b0380806116188461137e565b1693169183831493841561164b575b508315611635575b50505090565b6116419192935061121e565b16145f808061162f565b9093505f52600560205260405f20825f5260205260ff60405f205416925f611627565b1561167557565b60405162461bcd60e51b815260206004820152602560248201527f4552433732313a207472616e736665722066726f6d20696e636f72726563742060448201526437bbb732b960d91b6064820152608490fd5b906116f0916116d68461137e565b6001600160a01b039391841692849290918316841461166e565b16918215611786578161170d916117068661137e565b161461166e565b825f52600460205260405f206001600160601b0360a01b90818154169055815f52600360205260405f205f198154019055825f5260405f2060018154019055835f5260026020528260405f20918254161790557fddf252ad1be2c89b69c2b068fc378daa952ba7f163c4a11628f55a4df523b3ef5f80a4565b60405162461bcd60e51b8152602060048201526024808201527f4552433732313a207472616e7366657220746f20746865207a65726f206164646044820152637265737360e01b6064820152608490fd5b6007546001600160a01b031633036117eb57565b606460405162461bcd60e51b815260206004820152602060248201527f4f776e61626c653a2063616c6c6572206973206e6f7420746865206f776e65726044820152fd5b60809060208152603260208201527f4552433732313a207472616e7366657220746f206e6f6e20455243373231526560408201527131b2b4bb32b91034b6b83632b6b2b73a32b960711b60608201520190565b1561188957565b60405162461bcd60e51b8152806118a26004820161182f565b0390fd5b919291803b156119ab576118ef936040518092630a85bd0160e11b948583523360048401525f6024840152604483015260806064830152815f816020998a966084830190610fc9565b03926001600160a01b03165af15f918161196b575b5061195c57833d15611955573d61191a81611104565b9061192860405192836110e3565b81523d5f8383013e5b805191826119525760405162461bcd60e51b8152806118a26004820161182f565b01fd5b6060611931565b6001600160e01b031916149150565b9091508481813d83116119a4575b61198381836110e3565b810103126101dc57516001600160e01b0319811681036101dc57905f611904565b503d611979565b506001925050565b9293929190803b15611a2e57935f91611a0c9560018060a01b039160405194838694928593630a85bd0160e11b998a86523360048701521660248501526044840152608060648401528260209a8b976084830190610fc9565b0393165af15f918161196b575061195c57833d15611955573d61191a81611104565b50600193505050565b15611a3e57565b60405162461bcd60e51b815260206004820152601c60248201527f4552433732313a20746f6b656e20616c7265616479206d696e746564000000006044820152606490fdfea26469706673582212205bf51b72648c10db3df66bc0bc33231d8ccf16e463e3460a90420cb44f2918c364736f6c63430008170033","linkReferences":{}},"methodIdentifiers":{"approve(address,uint256)":"095ea7b3","balanceOf(address)":"70a08231","exists(uint256)":"4f558e79","getApproved(uint256)":"081812fc","getMetadata(uint256,string)":"cb4799f2","identityRegistryAddress()":"a759ee6f","isApprovedForAll(address,address)":"e985e9c5","name()":"06fdde03","owner()":"8da5cb5b","ownerOf(uint256)":"6352211e","register(string,(string,string)[])":"84413ec4","registryChainId()":"18e3ab57","renounceOwnership()":"715018a6","safeTransferFrom(address,address,uint256)":"42842e0e","safeTransferFrom(address,address,uint256,bytes)":"b88d4fde","setApprovalForAll(address,bool)":"a22cb465","setMetadata(uint256,string,string)":"59f9f50f","setTokenURI(uint256,string)":"162094c4","supportsInterface(bytes4)":"01ffc9a7","symbol()":"95d89b41","tokenURI(uint256)":"c87b56dd","transferFrom(address,address,uint256)":"23b872dd","transferOwnership(address)":"f2fde38b"},"id":31}