{"abi":[{"type":"constructor","inputs":[{"name":"name_","type":"string","internalType":"string"},{"name":"symbol_","type":"string","internalType":"string"}],"stateMutability":"nonpayable"},{"type":"function","name":"approve","inputs":[{"name":"to","type":"address","internalType":"address"},{"name":"tokenId","type":"uint256","internalType":"uint256"}],"outputs":[],"stateMutability":"nonpayable"},{"type":"function","name":"balanceOf","inputs":[{"name":"owner","type":"address","internalType":"address"}],"outputs":[{"name":"","type":"uint256","internalType":"uint256"}],"stateMutability":"view"},{"type":"function","name":"deleteMetadata","inputs":[{"name":"agentId","type":"uint256","internalType":"uint256"},{"name":"key","type":"bytes32","internalType":"bytes32"}],"outputs":[],"stateMutability":"nonpayable"},{"type":"function","name":"exists","inputs":[{"name":"agentId","type":"uint256","internalType":"uint256"}],"outputs":[{"name":"","type":"bool","internalType":"bool"}],"stateMutability":"view"},{"type":"function","name":"getApproved","inputs":[{"name":"tokenId","type":"uint256","internalType":"uint256"}],"outputs":[{"name":"","type":"address","internalType":"address"}],"stateMutability":"view"},{"type":"function","name":"getMetadata","inputs":[{"name":"agentId","type":"uint256","internalType":"uint256"},{"name":"key","type":"bytes32","internalType":"bytes32"}],"outputs":[{"name":"","type":"bytes","internalType":"bytes"}],"stateMutability":"view"},{"type":"function","name":"identityRegistryAddress","inputs":[],"outputs":[{"name":"","type":"address","internalType":"address"}],"stateMutability":"view"},{"type":"function","name":"isApprovedForAll","inputs":[{"name":"owner","type":"address","internalType":"address"},{"name":"operator","type":"address","internalType":"address"}],"outputs":[{"name":"","type":"bool","internalType":"bool"}],"stateMutability":"view"},{"type":"function","name":"mint","inputs":[{"name":"to","type":"address","internalType":"address"}],"outputs":[{"name":"agentId","type":"uint256","internalType":"uint256"}],"stateMutability":"nonpayable"},{"type":"function","name":"mintWithURI","inputs":[{"name":"to","type":"address","internalType":"address"},{"name":"uri","type":"string","internalType":"string"}],"outputs":[{"name":"agentId","type":"uint256","internalType":"uint256"}],"stateMutability":"nonpayable"},{"type":"function","name":"name","inputs":[],"outputs":[{"name":"","type":"string","internalType":"string"}],"stateMutability":"view"},{"type":"function","name":"owner","inputs":[],"outputs":[{"name":"","type":"address","internalType":"address"}],"stateMutability":"view"},{"type":"function","name":"ownerOf","inputs":[{"name":"tokenId","type":"uint256","internalType":"uint256"}],"outputs":[{"name":"","type":"address","internalType":"address"}],"stateMutability":"view"},{"type":"function","name":"registryChainId","inputs":[],"outputs":[{"name":"","type":"uint64","internalType":"uint64"}],"stateMutability":"view"},{"type":"function","name":"renounceOwnership","inputs":[],"outputs":[],"stateMutability":"nonpayable"},{"type":"function","name":"safeTransferFrom","inputs":[{"name":"from","type":"address","internalType":"address"},{"name":"to","type":"address","internalType":"address"},{"name":"tokenId","type":"uint256","internalType":"uint256"}],"outputs":[],"stateMutability":"nonpayable"},{"type":"function","name":"safeTransferFrom","inputs":[{"name":"from","type":"address","internalType":"address"},{"name":"to","type":"address","internalType":"address"},{"name":"tokenId","type":"uint256","internalType":"uint256"},{"name":"data","type":"bytes","internalType":"bytes"}],"outputs":[],"stateMutability":"nonpayable"},{"type":"function","name":"setApprovalForAll","inputs":[{"name":"operator","type":"address","internalType":"address"},{"name":"approved","type":"bool","internalType":"bool"}],"outputs":[],"stateMutability":"nonpayable"},{"type":"function","name":"setMetadata","inputs":[{"name":"agentId","type":"uint256","internalType":"uint256"},{"name":"key","type":"bytes32","internalType":"bytes32"},{"name":"value","type":"bytes","internalType":"bytes"}],"outputs":[],"stateMutability":"nonpayable"},{"type":"function","name":"setNextId","inputs":[{"name":"nextId_","type":"uint256","internalType":"uint256"}],"outputs":[],"stateMutability":"nonpayable"},{"type":"function","name":"setTokenURI","inputs":[{"name":"agentId","type":"uint256","internalType":"uint256"},{"name":"uri","type":"string","internalType":"string"}],"outputs":[],"stateMutability":"nonpayable"},{"type":"function","name":"supportsInterface","inputs":[{"name":"interfaceId","type":"bytes4","internalType":"bytes4"}],"outputs":[{"name":"","type":"bool","internalType":"bool"}],"stateMutability":"view"},{"type":"function","name":"symbol","inputs":[],"outputs":[{"name":"","type":"string","internalType":"string"}],"stateMutability":"view"},{"type":"function","name":"tokenURI","inputs":[{"name":"tokenId","type":"uint256","internalType":"uint256"}],"outputs":[{"name":"","type":"string","internalType":"string"}],"stateMutability":"view"},{"type":"function","name":"transferFrom","inputs":[{"name":"from","type":"address","internalType":"address"},{"name":"to","type":"address","internalType":"address"},{"name":"tokenId","type":"uint256","internalType":"uint256"}],"outputs":[],"stateMutability":"nonpayable"},{"type":"function","name":"transferOwnership","inputs":[{"name":"newOwner","type":"address","internalType":"address"}],"outputs":[],"stateMutability":"nonpayable"},{"type":"event","name":"Approval","inputs":[{"name":"owner","type":"address","indexed":true,"internalType":"address"},{"name":"approved","type":"address","indexed":true,"internalType":"address"},{"name":"tokenId","type":"uint256","indexed":true,"internalType":"uint256"}],"anonymous":false},{"type":"event","name":"ApprovalForAll","inputs":[{"name":"owner","type":"address","indexed":true,"internalType":"address"},{"name":"operator","type":"address","indexed":true,"internalType":"address"},{"name":"approved","type":"bool","indexed":false,"internalType":"bool"}],"anonymous":false},{"type":"event","name":"MetadataDeleted","inputs":[{"name":"agentId","type":"uint256","indexed":true,"internalType":"uint256"},{"name":"key","type":"bytes32","indexed":true,"internalType":"bytes32"}],"anonymous":false},{"type":"event","name":"MetadataSet","inputs":[{"name":"agentId","type":"uint256","indexed":true,"internalType":"uint256"},{"name":"key","type":"bytes32","indexed":true,"internalType":"bytes32"},{"name":"value","type":"bytes","indexed":false,"internalType":"bytes"}],"anonymous":false},{"type":"event","name":"OwnershipTransferred","inputs":[{"name":"previousOwner","type":"address","indexed":true,"internalType":"address"},{"name":"newOwner","type":"address","indexed":true,"internalType":"address"}],"anonymous":false},{"type":"event","name":"Transfer","inputs":[{"name":"from","type":"address","indexed":true,"internalType":"address"},{"name":"to","type":"address","indexed":true,"internalType":"address"},{"name":"tokenId","type":"uint256","indexed":true,"internalType":"uint256"}],"anonymous":false}],"bytecode":{"object":"0x608060405234620003305762001d30803803806200001d8162000334565b928339810190604081830312620003305780516001600160401b03908181116200033057836200004f9184016200035a565b916020938482015183811162000330576200006b92016200035a565b928251908282116200024e575f54916001948584811c9416801562000325575b838510146200022f578190601f94858111620002d2575b5083908583116001146200026e575f9262000262575b50505f19600383901b1c191690851b175f555b84519283116200024e5783548481811c9116801562000243575b828210146200022f57828111620001e7575b50809183116001146200018357508192935f9262000177575b50505f19600383901b1c191690821b1790555b60078054336001600160a01b03198216811790925560405191906001600160a01b03167f8be0079c531659141344cd1fd0a4f28419497f9722a3daafe3b4186f6b6457e05f80a36119659081620003cb8239f35b015190505f8062000110565b90601f19831694845f52825f20925f905b878210620001cf57505083859610620001b6575b505050811b01905562000123565b01515f1960f88460031b161c191690555f8080620001a8565b80878596829496860151815501950193019062000194565b845f52815f208380860160051c82019284871062000225575b0160051c019085905b82811062000219575050620000f7565b5f815501859062000209565b9250819262000200565b634e487b7160e01b5f52602260045260245ffd5b90607f1690620000e5565b634e487b7160e01b5f52604160045260245ffd5b015190505f80620000b8565b90879350601f198316915f8052855f20925f5b87828210620002bb5750508411620002a2575b505050811b015f55620000cb565b01515f1960f88460031b161c191690555f808062000294565b8385015186558b9790950194938401930162000281565b9091505f8052835f208580850160051c8201928686106200031b575b918991869594930160051c01915b8281106200030c575050620000a2565b5f8155859450899101620002fc565b92508192620002ee565b93607f16936200008b565b5f80fd5b6040519190601f01601f191682016001600160401b038111838210176200024e57604052565b919080601f84011215620003305782516001600160401b0381116200024e5760209062000390601f8201601f1916830162000334565b9281845282828701011162000330575f5b818110620003b65750825f9394955001015290565b8581018301518482018401528201620003a156fe604060808152600480361015610013575f80fd5b5f3560e01c8063019e925114610d5e57806301ffc9a714610cd657806306fdde0314610c29578063081812fc14610c0a578063095ea7b314610a9c5780630e98060214610a33578063162094c4146109e457806318e3ab57146109c057806323b872dd1461099c57806342842e0e146109695780634f558e791461092d57806350ec22f11461088b5780636352211e1461085b5780636a6278421461081657806370a0823114610782578063715018a614610727578063866bca6d146106dd5780638da5cb5b146106b557806395d89b41146105d2578063a0bd575b1461043c578063a22cb46514610372578063a759ee6f14610358578063b88d4fde146102d0578063c87b56dd1461024f578063e985e9c5146102015763f2fde38b14610139575f80fd5b346101fd5760203660031901126101fd57610152610e00565b9061015b61119e565b6001600160a01b039182169283156101ab575050600754826001600160601b0360a01b821617600755167f8be0079c531659141344cd1fd0a4f28419497f9722a3daafe3b4186f6b6457e05f80a3005b906020608492519162461bcd60e51b8352820152602660248201527f4f776e61626c653a206e6577206f776e657220697320746865207a65726f206160448201526564647265737360d01b6064820152fd5b5f80fd5b82346101fd57806003193601126101fd5760209061021d610e00565b610225610e16565b9060018060a01b038091165f5260058452825f2091165f52825260ff815f20541690519015158152f35b50346101fd5760203660031901126101fd57355f818152600260205260409020546102cc926102a692909161028e906001600160a01b031615156110e8565b5f5260066020526102ad815f20825193848092610f81565b0383610ed5565b5f81516102b981610ea5565b5251918291602083526020830190610dc2565b0390f35b50346101fd5760803660031901126101fd576102ea610e00565b906102f3610e16565b916044356064359367ffffffffffffffff85116101fd57366023860112156101fd5761032e6103519486602461035698369301359101610f13565b9261034161033c8433611508565b611070565b61034c8383836115cc565b61185f565b61172e565b005b82346101fd575f3660031901126101fd5760209051308152f35b5090346101fd57806003193601126101fd5761038c610e00565b90602435918215158093036101fd576001600160a01b0316923384146103fa5750335f526005602052805f20835f52602052805f2060ff1981541660ff8416179055519081527f17307eab39ab6107e8899845ad3d59bd9653f200f220920489ca2b5937696c3160203392a3005b6020606492519162461bcd60e51b8352820152601960248201527f4552433732313a20617070726f766520746f2063616c6c6572000000000000006044820152fd5b50346101fd5760603660031901126101fd578035602435916044359367ffffffffffffffff948581116101fd576104769036908401610e2c565b929061048185611458565b845f5260209160098352835f20875f528352835f209785116105bf57506104b2846104ac8954610f49565b89611159565b5f96601f8511600114610539578491829161050683807f38671a025122228b2316fd2a2a03ca9a3aad2820f6a4b0b7ec17f3ce4bb7c1239a9b9c5f9161052e575b508160011b915f199060031b1c19161790565b90555b8451958487958652850152848401375f828201840152601f01601f19168101030190a3005b90508401355f6104f3565b601f198516815f52835f20905f5b8181106105a85750918693917f38671a025122228b2316fd2a2a03ca9a3aad2820f6a4b0b7ec17f3ce4bb7c12398999a8580951061058f575b5050600183811b019055610509565b8301355f19600386901b60f8161c191690555f80610580565b848b01358355998501996001909201918501610547565b604190634e487b7160e01b5f525260245ffd5b82346101fd575f3660031901126101fd578051905f9082600192600154936105f985610f49565b90818452602095866001821691825f14610693575050600114610638575b50506102cc9291610629910385610ed5565b51928284938452830190610dc2565b9085925060015f527fb10e2d527612073b26eecdfd717e6a320cf44b4afac2b0732d9fcbe2b7fa0cf6915f925b82841061067b5750505082010181610629610617565b8054848a018601528895508794909301928101610665565b60ff19168682015292151560051b850190920192508391506106299050610617565b82346101fd575f3660031901126101fd5760075490516001600160a01b039091168152602090f35b82346101fd576102a66102cc916106f336610e8f565b905f526009602052815f20905f52602052610715815f20825193848092610f81565b51918291602083526020830190610dc2565b346101fd575f3660031901126101fd5761073f61119e565b600780546001600160a01b031981169091555f906001600160a01b03167f8be0079c531659141344cd1fd0a4f28419497f9722a3daafe3b4186f6b6457e08280a3005b5090346101fd5760203660031901126101fd576001600160a01b036107a5610e00565b1680156107c157602092505f5260038252805f20549051908152f35b815162461bcd60e51b8152602081850152602960248201527f4552433732313a2061646472657373207a65726f206973206e6f7420612076616044820152683634b21037bbb732b960b91b6064820152608490fd5b82346101fd5760203660031901126101fd57602090610833610e00565b9061083c61119e565b61085561084a60085461104e565b8093816008556111f6565b51908152f35b5090346101fd5760203660031901126101fd5761087a60209235611134565b90516001600160a01b039091168152f35b82346101fd5761089a36610e8f565b916108a482611458565b815f526009602052805f20835f526020525f206108c18154610f49565b90816108f0575b50507fc638787d49136eff0d49b807f7b8b96352a12377740d04e166bd866afaef50bf5f80a3005b81601f5f93116001146109075750555b82806108c8565b908083918252610926601f60208420940160051c8401600185016110d2565b5555610900565b5090346101fd5760203660031901126101fd57610960602092355f52600260205260018060a01b0360405f205416151590565b90519015158152f35b82346101fd576103516103569161097f36610e5a565b9192519261098c84610ea5565b5f845261034161033c8433611508565b346101fd576103566109ad36610e5a565b916109bb61033c8433611508565b6115cc565b82346101fd575f3660031901126101fd576020905167ffffffffffffffff46168152f35b5090346101fd573660031901126101fd5780356024359167ffffffffffffffff83116101fd57610a1d610a2d9161035694369101610e2c565b610a2684611458565b3691610f13565b90611307565b5090346101fd57806003193601126101fd57610a4d610e00565b9060243567ffffffffffffffff81116101fd57610a96610a7560209561085593369101610e2c565b610a7d61119e565b610a26610a8b60085461104e565b8097816008556111f6565b83611307565b50346101fd57816003193601126101fd57610ab5610e00565b6024359290916001600160a01b0391908280610ad087611134565b16941693808514610bbd57803314908115610b9e575b5015610b3657845f526020525f20826001600160601b0360a01b825416179055610b0f83611134565b167f8c5be1e5ebec7d5bd14f71427d1e84f3dd0314c0f7b2291e5b200ac8c7c3b9255f80a4005b6020608492519162461bcd60e51b8352820152603d60248201527f4552433732313a20617070726f76652063616c6c6572206973206e6f7420746f60448201527f6b656e206f776e6572206f7220617070726f76656420666f7220616c6c0000006064820152fd5b90505f526005602052815f20335f5260205260ff825f2054165f610ae6565b506020608492519162461bcd60e51b8352820152602160248201527f4552433732313a20617070726f76616c20746f2063757272656e74206f776e656044820152603960f91b6064820152fd5b5090346101fd5760203660031901126101fd5761087a60209235611012565b82346101fd575f3660031901126101fd578051905f90825f5492610c4c84610f49565b808352602094600190866001821691825f14610693575050600114610c7d5750506102cc9291610629910385610ed5565b5f80805286935091907f290decd9548b62a8d60345a988386fc84ba6bc95484008f6362f93160ef3e5635b828410610cbe5750505082010181610629610617565b8054848a018601528895508794909301928101610ca8565b50346101fd5760203660031901126101fd573563ffffffff60e01b81168091036101fd5760209163f5910c5360e01b8214918215610d18575b50519015158152f35b9091506380ac58cd60e01b8114908115610d4d575b8115610d3c575b50905f610d0f565b6301ffc9a760e01b1490505f610d34565b635b5e139f60e01b81149150610d2d565b50346101fd5760203660031901126101fd57803591610d7b61119e565b6008548310610d8b576008839055005b906020606492519162461bcd60e51b83528201526011602482015270191958dc99585cda5b99c81b995e1d1259607a1b6044820152fd5b91908251928382525f5b848110610dec575050825f602080949584010152601f8019910116010190565b602081830181015184830182015201610dcc565b600435906001600160a01b03821682036101fd57565b602435906001600160a01b03821682036101fd57565b9181601f840112156101fd5782359167ffffffffffffffff83116101fd57602083818601950101116101fd57565b60609060031901126101fd576001600160a01b039060043582811681036101fd579160243590811681036101fd579060443590565b60409060031901126101fd576004359060243590565b6020810190811067ffffffffffffffff821117610ec157604052565b634e487b7160e01b5f52604160045260245ffd5b90601f8019910116810190811067ffffffffffffffff821117610ec157604052565b67ffffffffffffffff8111610ec157601f01601f191660200190565b929192610f1f82610ef7565b91610f2d6040519384610ed5565b8294818452818301116101fd578281602093845f960137010152565b90600182811c92168015610f77575b6020831014610f6357565b634e487b7160e01b5f52602260045260245ffd5b91607f1691610f58565b80545f9392610f8f82610f49565b918282526020936001916001811690815f14610ff35750600114610fb5575b5050505050565b90939495505f92919252835f2092845f945b838610610fdf57505050500101905f80808080610fae565b805485870183015294019385908201610fc7565b60ff19168685015250505090151560051b010191505f80808080610fae565b5f81815260026020526040902054611034906001600160a01b031615156110e8565b5f908152600460205260409020546001600160a01b031690565b5f19811461105c5760010190565b634e487b7160e01b5f52601160045260245ffd5b1561107757565b60405162461bcd60e51b815260206004820152602d60248201527f4552433732313a2063616c6c6572206973206e6f7420746f6b656e206f776e6560448201526c1c881bdc88185c1c1c9bdd9959609a1b6064820152608490fd5b8181106110dd575050565b5f81556001016110d2565b156110ef57565b60405162461bcd60e51b815260206004820152601860248201527f4552433732313a20696e76616c696420746f6b656e20494400000000000000006044820152606490fd5b5f908152600260205260409020546001600160a01b03166111568115156110e8565b90565b9190601f811161116857505050565b611192925f5260205f20906020601f840160051c83019310611194575b601f0160051c01906110d2565b565b9091508190611185565b6007546001600160a01b031633036111b257565b606460405162461bcd60e51b815260206004820152602060248201527f4f776e61626c653a2063616c6c6572206973206e6f7420746865206f776e65726044820152fd5b9060405161120381610ea5565b5f81526001600160a01b0383169182156112c357611192938161035194611246611240835f52600260205260018060a01b0360405f205416151590565b156118e3565b5f82815260026020526040902054611268906001600160a01b03161515611240565b805f52600360205260405f2060018154019055815f52600260205260405f20816001600160601b0360a01b8254161790555f7fddf252ad1be2c89b69c2b068fc378daa952ba7f163c4a11628f55a4df523b3ef8180a4611752565b606460405162461bcd60e51b815260206004820152602060248201527f4552433732313a206d696e7420746f20746865207a65726f20616464726573736044820152fd5b5f818152600260205260409020549192916001600160a01b0316156113fc575f526020600660205260405f209083519067ffffffffffffffff8211610ec15761135a826113548554610f49565b85611159565b602090601f831160011461139b5750819061138c9394955f92611390575b50508160011b915f199060031b1c19161790565b9055565b015190505f80611378565b90601f19831695845f5260205f20925f905b8882106113e4575050836001959697106113cc575b505050811b019055565b01515f1960f88460031b161c191690555f80806113c2565b806001859682949686015181550195019301906113ad565b60405162461bcd60e51b815260206004820152602e60248201527f45524337323155524953746f726167653a2055524920736574206f66206e6f6e60448201526d32bc34b9ba32b73a103a37b5b2b760911b6064820152608490fd5b61146181611134565b6001600160a01b0390811633811492909183156114f0575b505081156114cf575b501561148a57565b60405162461bcd60e51b815260206004820152601a60248201527f6e6f7420636f6e74726f6c6c6572206f72206f70657261746f720000000000006044820152606490fd5b90505f52600560205260405f20335f5260205260ff60405f2054165f611482565b909192506114fe3392611012565b1614905f80611479565b906001600160a01b03808061151c84611134565b1693169183831493841561154f575b508315611539575b50505090565b61154591929350611012565b16145f8080611533565b9093505f52600560205260405f20825f5260205260ff60405f205416925f61152b565b1561157957565b60405162461bcd60e51b815260206004820152602560248201527f4552433732313a207472616e736665722066726f6d20696e636f72726563742060448201526437bbb732b960d91b6064820152608490fd5b906115f4916115da84611134565b6001600160a01b0393918416928492909183168414611572565b1691821561168a57816116119161160a86611134565b1614611572565b825f52600460205260405f206001600160601b0360a01b90818154169055815f52600360205260405f205f198154019055825f5260405f2060018154019055835f5260026020528260405f20918254161790557fddf252ad1be2c89b69c2b068fc378daa952ba7f163c4a11628f55a4df523b3ef5f80a4565b60405162461bcd60e51b8152602060048201526024808201527f4552433732313a207472616e7366657220746f20746865207a65726f206164646044820152637265737360e01b6064820152608490fd5b60809060208152603260208201527f4552433732313a207472616e7366657220746f206e6f6e20455243373231526560408201527131b2b4bb32b91034b6b83632b6b2b73a32b960711b60608201520190565b1561173557565b60405162461bcd60e51b81528061174e600482016116db565b0390fd5b919291803b156118575761179b936040518092630a85bd0160e11b948583523360048401525f6024840152604483015260806064830152815f816020998a966084830190610dc2565b03926001600160a01b03165af15f9181611817575b5061180857833d15611801573d6117c681610ef7565b906117d46040519283610ed5565b81523d5f8383013e5b805191826117fe5760405162461bcd60e51b81528061174e600482016116db565b01fd5b60606117dd565b6001600160e01b031916149150565b9091508481813d8311611850575b61182f8183610ed5565b810103126101fd57516001600160e01b0319811681036101fd57905f6117b0565b503d611825565b506001925050565b9293929190803b156118da57935f916118b89560018060a01b039160405194838694928593630a85bd0160e11b998a86523360048701521660248501526044840152608060648401528260209a8b976084830190610dc2565b0393165af15f9181611817575061180857833d15611801573d6117c681610ef7565b50600193505050565b156118ea57565b60405162461bcd60e51b815260206004820152601c60248201527f4552433732313a20746f6b656e20616c7265616479206d696e746564000000006044820152606490fdfea26469706673582212204d23be4e01f173aa4062cb0171a4238fd6f0cdbf462173e03c4272197fb8966864736f6c63430008170033","linkReferences":{}},"methodIdentifiers":{"approve(address,uint256)":"095ea7b3","balanceOf(address)":"70a08231","deleteMetadata(uint256,bytes32)":"50ec22f1","exists(uint256)":"4f558e79","getApproved(uint256)":"081812fc","getMetadata(uint256,bytes32)":"866bca6d","identityRegistryAddress()":"a759ee6f","isApprovedForAll(address,address)":"e985e9c5","mint(address)":"6a627842","mintWithURI(address,string)":"0e980602","name()":"06fdde03","owner()":"8da5cb5b","ownerOf(uint256)":"6352211e","registryChainId()":"18e3ab57","renounceOwnership()":"715018a6","safeTransferFrom(address,address,uint256)":"42842e0e","safeTransferFrom(address,address,uint256,bytes)":"b88d4fde","setApprovalForAll(address,bool)":"a22cb465","setMetadata(uint256,bytes32,bytes)":"a0bd575b","setNextId(uint256)":"019e9251","setTokenURI(uint256,string)":"162094c4","supportsInterface(bytes4)":"01ffc9a7","symbol()":"95d89b41","tokenURI(uint256)":"c87b56dd","transferFrom(address,address,uint256)":"23b872dd","transferOwnership(address)":"f2fde38b"},"id":32}