{"abi":[{"type":"constructor","inputs":[],"stateMutability":"nonpayable"},{"type":"function","name":"agentExists","inputs":[{"name":"agentId","type":"uint256","internalType":"uint256"}],"outputs":[{"name":"exists","type":"bool","internalType":"bool"}],"stateMutability":"view"},{"type":"function","name":"getAgent","inputs":[{"name":"agentId","type":"uint256","internalType":"uint256"}],"outputs":[{"name":"agentInfo","type":"tuple","internalType":"struct IIdentityRegistry.AgentInfo","components":[{"name":"agentId","type":"uint256","internalType":"uint256"},{"name":"agentDomain","type":"string","internalType":"string"},{"name":"agentAddress","type":"address","internalType":"address"}]}],"stateMutability":"view"},{"type":"function","name":"getAgentCount","inputs":[],"outputs":[{"name":"count","type":"uint256","internalType":"uint256"}],"stateMutability":"view"},{"type":"function","name":"newAgent","inputs":[{"name":"agentDomain","type":"string","internalType":"string"},{"name":"agentAddress","type":"address","internalType":"address"}],"outputs":[{"name":"agentId","type":"uint256","internalType":"uint256"}],"stateMutability":"nonpayable"},{"type":"function","name":"resolveByAddress","inputs":[{"name":"agentAddress","type":"address","internalType":"address"}],"outputs":[{"name":"agentInfo","type":"tuple","internalType":"struct IIdentityRegistry.AgentInfo","components":[{"name":"agentId","type":"uint256","internalType":"uint256"},{"name":"agentDomain","type":"string","internalType":"string"},{"name":"agentAddress","type":"address","internalType":"address"}]}],"stateMutability":"view"},{"type":"function","name":"resolveByDomain","inputs":[{"name":"agentDomain","type":"string","internalType":"string"}],"outputs":[{"name":"agentInfo","type":"tuple","internalType":"struct IIdentityRegistry.AgentInfo","components":[{"name":"agentId","type":"uint256","internalType":"uint256"},{"name":"agentDomain","type":"string","internalType":"string"},{"name":"agentAddress","type":"address","internalType":"address"}]}],"stateMutability":"view"},{"type":"function","name":"updateAgent","inputs":[{"name":"agentId","type":"uint256","internalType":"uint256"},{"name":"newAgentDomain","type":"string","internalType":"string"},{"name":"newAgentAddress","type":"address","internalType":"address"}],"outputs":[{"name":"success","type":"bool","internalType":"bool"}],"stateMutability":"nonpayable"},{"type":"event","name":"AgentRegistered","inputs":[{"name":"agentId","type":"uint256","indexed":true,"internalType":"uint256"},{"name":"agentDomain","type":"string","indexed":false,"internalType":"string"},{"name":"agentAddress","type":"address","indexed":false,"internalType":"address"}],"anonymous":false},{"type":"event","name":"AgentUpdated","inputs":[{"name":"agentId","type":"uint256","indexed":true,"internalType":"uint256"},{"name":"agentDomain","type":"string","indexed":false,"internalType":"string"},{"name":"agentAddress","type":"address","indexed":false,"internalType":"address"}],"anonymous":false},{"type":"error","name":"AddressAlreadyRegistered","inputs":[]},{"type":"error","name":"AgentNotFound","inputs":[]},{"type":"error","name":"DomainAlreadyRegistered","inputs":[]},{"type":"error","name":"InvalidAddress","inputs":[]},{"type":"error","name":"InvalidDomain","inputs":[]},{"type":"error","name":"UnauthorizedUpdate","inputs":[]}],"bytecode":{"object":"0x608060405234801561000f575f80fd5b5060015f55610e46806100215f395ff3fe608060405234801561000f575f80fd5b506004361061007a575f3560e01c80634750d0fa116100585780634750d0fa146100dd57806378ddad12146100fe57806391cab63e14610111578063de99f15714610119575f80fd5b80630c6381071461007e5780632de5aaf7146100a75780633bfbbad7146100ba575b5f80fd5b61009161008c36600461088c565b61013a565b60405161009e91906108ac565b60405180910390f35b6100916100b536600461091e565b610247565b6100cd6100c836600461097a565b61033d565b604051901515815260200161009e565b6100f06100eb3660046109d4565b61052a565b60405190815260200161009e565b61009161010c366004610a24565b610721565b6100f061083a565b6100cd61012736600461091e565b5f90815260016020526040902054151590565b61014261084e565b6001600160a01b0382165f908152600360205260408120549081900361017b5760405163e93ba22360e01b815260040160405180910390fd5b5f81815260016020818152604092839020835160608101909452805484529182018054918401916101ab90610a63565b80601f01602080910402602001604051908101604052809291908181526020018280546101d790610a63565b80156102225780601f106101f957610100808354040283529160200191610222565b820191905f5260205f20905b81548152906001019060200180831161020557829003601f168201915b5050509183525050600291909101546001600160a01b03166020909101529392505050565b61024f61084e565b5f828152600160208181526040928390208351606081019094528054845291820180549184019161027f90610a63565b80601f01602080910402602001604051908101604052809291908181526020018280546102ab90610a63565b80156102f65780601f106102cd576101008083540402835291602001916102f6565b820191905f5260205f20905b8154815290600101906020018083116102d957829003601f168201915b5050509183525050600291909101546001600160a01b031660209091015280519091505f036103385760405163e93ba22360e01b815260040160405180910390fd5b919050565b5f8481526001602052604081208054820361036b5760405163e93ba22360e01b815260040160405180910390fd5b60028101546001600160a01b0316331461039857604051634f1f214760e01b815260040160405180910390fd5b83158015906001600160a01b0385161515906103ee57600287876040516103c0929190610a9b565b9081526020016040518091039020545f146103ee57604051637b857a6b60e01b815260040160405180910390fd5b801561042a576001600160a01b0385165f908152600360205260409020541561042a576040516316a163b960e11b815260040160405180910390fd5b8115610489576002836001016040516104439190610aaa565b9081526040519081900360200190205f905560018301610464878983610b7e565b508760028888604051610478929190610a9b565b908152604051908190036020019020555b80156104ce576002830180546001600160a01b039081165f9081526003602052604080822082905583546001600160a01b031916928916928317909355908152208890555b600283015460405189917f1b37db56c92268433e33fda6783791cb9e5f8ffababd3952ab40716443f1bf89916105149160018801916001600160a01b0390911690610c3a565b60405180910390a2506001979650505050505050565b5f82810361054b576040516375893cc160e11b815260040160405180910390fd5b6001600160a01b0382166105725760405163e6c4247b60e01b815260040160405180910390fd5b60028484604051610584929190610a9b565b9081526020016040518091039020545f146105b257604051637b857a6b60e01b815260040160405180910390fd5b6001600160a01b0382165f90815260036020526040902054156105e8576040516316a163b960e11b815260040160405180910390fd5b5f805490806105f683610ce3565b919050559050604051806060016040528082815260200185858080601f0160208091040260200160405190810160405280939291908181526020018383808284375f9201829052509385525050506001600160a01b038516602092830152838152600180835260409091208351815591830151908201906106779082610cfb565b50604091820151600291820180546001600160a01b0319166001600160a01b0390921691909117905590518291906106b29087908790610a9b565b9081526040805160209281900383018120939093556001600160a01b0385165f9081526003909252902082905581907faef1fcdf962a03943b677ae3b92ef1b34c972aeef794ed6e9ba5f599b461883b9061071290879087908790610db7565b60405180910390a29392505050565b61072961084e565b5f6002848460405161073c929190610a9b565b9081526020016040518091039020549050805f0361076d5760405163e93ba22360e01b815260040160405180910390fd5b5f818152600160208181526040928390208351606081019094528054845291820180549184019161079d90610a63565b80601f01602080910402602001604051908101604052809291908181526020018280546107c990610a63565b80156108145780601f106107eb57610100808354040283529160200191610814565b820191905f5260205f20905b8154815290600101906020018083116107f757829003601f168201915b5050509183525050600291909101546001600160a01b0316602090910152949350505050565b5f60015f546108499190610df7565b905090565b60405180606001604052805f8152602001606081526020015f6001600160a01b031681525090565b80356001600160a01b0381168114610338575f80fd5b5f6020828403121561089c575f80fd5b6108a582610876565b9392505050565b5f6020808352835181840152808401516060604085015280518060808601525f5b818110156108e95782810184015186820160a0015283016108cd565b505f85820160a0015260408601516001600160a01b03811660608701529250601f01601f19169390930160a001949350505050565b5f6020828403121561092e575f80fd5b5035919050565b5f8083601f840112610945575f80fd5b50813567ffffffffffffffff81111561095c575f80fd5b602083019150836020828501011115610973575f80fd5b9250929050565b5f805f806060858703121561098d575f80fd5b84359350602085013567ffffffffffffffff8111156109aa575f80fd5b6109b687828801610935565b90945092506109c9905060408601610876565b905092959194509250565b5f805f604084860312156109e6575f80fd5b833567ffffffffffffffff8111156109fc575f80fd5b610a0886828701610935565b9094509250610a1b905060208501610876565b90509250925092565b5f8060208385031215610a35575f80fd5b823567ffffffffffffffff811115610a4b575f80fd5b610a5785828601610935565b90969095509350505050565b600181811c90821680610a7757607f821691505b602082108103610a9557634e487b7160e01b5f52602260045260245ffd5b50919050565b818382375f9101908152919050565b5f808354610ab781610a63565b60018281168015610acf5760018114610ae457610b10565b60ff1984168752821515830287019450610b10565b875f526020805f205f5b85811015610b075781548a820152908401908201610aee565b50505082870194505b50929695505050505050565b634e487b7160e01b5f52604160045260245ffd5b601f821115610b79575f81815260208120601f850160051c81016020861015610b565750805b601f850160051c820191505b81811015610b7557828155600101610b62565b5050505b505050565b67ffffffffffffffff831115610b9657610b96610b1c565b610baa83610ba48354610a63565b83610b30565b5f601f841160018114610bdb575f8515610bc45750838201355b5f19600387901b1c1916600186901b178355610c33565b5f83815260209020601f19861690835b82811015610c0b5786850135825560209485019460019092019101610beb565b5086821015610c27575f1960f88860031b161c19848701351681555b505060018560011b0183555b5050505050565b604081525f808454610c4b81610a63565b806040860152606060018084165f8114610c6c5760018114610c8657610cb4565b60ff1985168884015283151560051b880183019550610cb4565b895f526020805f205f5b86811015610cab5781548b8201870152908401908201610c90565b8a018501975050505b505050506001600160a01b03851660208501525090506108a5565b634e487b7160e01b5f52601160045260245ffd5b5f60018201610cf457610cf4610ccf565b5060010190565b815167ffffffffffffffff811115610d1557610d15610b1c565b610d2981610d238454610a63565b84610b30565b602080601f831160018114610d5c575f8415610d455750858301515b5f19600386901b1c1916600185901b178555610b75565b5f85815260208120601f198616915b82811015610d8a57888601518255948401946001909101908401610d6b565b5085821015610da757878501515f19600388901b60f8161c191681555b5050505050600190811b01905550565b60408152826040820152828460608301375f60608483018101919091526001600160a01b03929092166020820152601f909201601f191690910101919050565b81810381811115610e0a57610e0a610ccf565b9291505056fea2646970667358221220eab28ba3629add416a7594470d7f8406a4deb1d61d1b5b39ea0624432a321d7364736f6c63430008140033","linkReferences":{}},"methodIdentifiers":{"agentExists(uint256)":"de99f157","getAgent(uint256)":"2de5aaf7","getAgentCount()":"91cab63e","newAgent(string,address)":"4750d0fa","resolveByAddress(address)":"0c638107","resolveByDomain(string)":"78ddad12","updateAgent(uint256,string,address)":"3bfbbad7"},"id":19}